{
  "_format": "hh-sol-artifact-1",
  "contractName": "Raikyrie",
  "sourceName": "contracts/Raikyrie.sol",
  "abi": [
    {
      "inputs": [],
      "stateMutability": "nonpayable",
      "type": "constructor"
    },
    {
      "anonymous": false,
      "inputs": [
        {
          "indexed": true,
          "internalType": "address",
          "name": "owner",
          "type": "address"
        },
        {
          "indexed": true,
          "internalType": "address",
          "name": "approved",
          "type": "address"
        },
        {
          "indexed": true,
          "internalType": "uint256",
          "name": "tokenId",
          "type": "uint256"
        }
      ],
      "name": "Approval",
      "type": "event"
    },
    {
      "anonymous": false,
      "inputs": [
        {
          "indexed": true,
          "internalType": "address",
          "name": "owner",
          "type": "address"
        },
        {
          "indexed": true,
          "internalType": "address",
          "name": "operator",
          "type": "address"
        },
        {
          "indexed": false,
          "internalType": "bool",
          "name": "approved",
          "type": "bool"
        }
      ],
      "name": "ApprovalForAll",
      "type": "event"
    },
    {
      "anonymous": false,
      "inputs": [
        {
          "indexed": true,
          "internalType": "address",
          "name": "previousOwner",
          "type": "address"
        },
        {
          "indexed": true,
          "internalType": "address",
          "name": "newOwner",
          "type": "address"
        }
      ],
      "name": "OwnershipTransferred",
      "type": "event"
    },
    {
      "anonymous": false,
      "inputs": [
        {
          "indexed": true,
          "internalType": "address",
          "name": "from",
          "type": "address"
        },
        {
          "indexed": true,
          "internalType": "address",
          "name": "to",
          "type": "address"
        },
        {
          "indexed": true,
          "internalType": "uint256",
          "name": "tokenId",
          "type": "uint256"
        }
      ],
      "name": "Transfer",
      "type": "event"
    },
    {
      "inputs": [],
      "name": "COST",
      "outputs": [
        {
          "internalType": "uint256",
          "name": "",
          "type": "uint256"
        }
      ],
      "stateMutability": "view",
      "type": "function"
    },
    {
      "inputs": [],
      "name": "MAX_FREE",
      "outputs": [
        {
          "internalType": "uint256",
          "name": "",
          "type": "uint256"
        }
      ],
      "stateMutability": "view",
      "type": "function"
    },
    {
      "inputs": [],
      "name": "MAX_FREE_PER_WALLET",
      "outputs": [
        {
          "internalType": "uint256",
          "name": "",
          "type": "uint256"
        }
      ],
      "stateMutability": "view",
      "type": "function"
    },
    {
      "inputs": [],
      "name": "MAX_RAIKYRIES",
      "outputs": [
        {
          "internalType": "uint256",
          "name": "",
          "type": "uint256"
        }
      ],
      "stateMutability": "view",
      "type": "function"
    },
    {
      "inputs": [
        {
          "internalType": "address",
          "name": "",
          "type": "address"
        }
      ],
      "name": "_mintedFreeAmount",
      "outputs": [
        {
          "internalType": "uint256",
          "name": "",
          "type": "uint256"
        }
      ],
      "stateMutability": "view",
      "type": "function"
    },
    {
      "inputs": [
        {
          "internalType": "address",
          "name": "to",
          "type": "address"
        },
        {
          "internalType": "uint256",
          "name": "tokenId",
          "type": "uint256"
        }
      ],
      "name": "approve",
      "outputs": [],
      "stateMutability": "nonpayable",
      "type": "function"
    },
    {
      "inputs": [
        {
          "internalType": "address",
          "name": "owner",
          "type": "address"
        }
      ],
      "name": "balanceOf",
      "outputs": [
        {
          "internalType": "uint256",
          "name": "",
          "type": "uint256"
        }
      ],
      "stateMutability": "view",
      "type": "function"
    },
    {
      "inputs": [],
      "name": "baseURI",
      "outputs": [
        {
          "internalType": "string",
          "name": "",
          "type": "string"
        }
      ],
      "stateMutability": "view",
      "type": "function"
    },
    {
      "inputs": [
        {
          "internalType": "address",
          "name": "mintAddress",
          "type": "address"
        },
        {
          "internalType": "uint256",
          "name": "count",
          "type": "uint256"
        }
      ],
      "name": "burn",
      "outputs": [],
      "stateMutability": "nonpayable",
      "type": "function"
    },
    {
      "inputs": [
        {
          "internalType": "uint256",
          "name": "tokenId",
          "type": "uint256"
        }
      ],
      "name": "getApproved",
      "outputs": [
        {
          "internalType": "address",
          "name": "",
          "type": "address"
        }
      ],
      "stateMutability": "view",
      "type": "function"
    },
    {
      "inputs": [
        {
          "internalType": "address",
          "name": "owner",
          "type": "address"
        },
        {
          "internalType": "address",
          "name": "operator",
          "type": "address"
        }
      ],
      "name": "isApprovedForAll",
      "outputs": [
        {
          "internalType": "bool",
          "name": "",
          "type": "bool"
        }
      ],
      "stateMutability": "view",
      "type": "function"
    },
    {
      "inputs": [],
      "name": "maxPerTx",
      "outputs": [
        {
          "internalType": "uint256",
          "name": "",
          "type": "uint256"
        }
      ],
      "stateMutability": "view",
      "type": "function"
    },
    {
      "inputs": [
        {
          "internalType": "uint256",
          "name": "count",
          "type": "uint256"
        }
      ],
      "name": "mint",
      "outputs": [],
      "stateMutability": "payable",
      "type": "function"
    },
    {
      "inputs": [],
      "name": "mintEnabled",
      "outputs": [
        {
          "internalType": "bool",
          "name": "",
          "type": "bool"
        }
      ],
      "stateMutability": "view",
      "type": "function"
    },
    {
      "inputs": [],
      "name": "name",
      "outputs": [
        {
          "internalType": "string",
          "name": "",
          "type": "string"
        }
      ],
      "stateMutability": "view",
      "type": "function"
    },
    {
      "inputs": [],
      "name": "owner",
      "outputs": [
        {
          "internalType": "address",
          "name": "",
          "type": "address"
        }
      ],
      "stateMutability": "view",
      "type": "function"
    },
    {
      "inputs": [
        {
          "internalType": "uint256",
          "name": "tokenId",
          "type": "uint256"
        }
      ],
      "name": "ownerOf",
      "outputs": [
        {
          "internalType": "address",
          "name": "",
          "type": "address"
        }
      ],
      "stateMutability": "view",
      "type": "function"
    },
    {
      "inputs": [],
      "name": "renounceOwnership",
      "outputs": [],
      "stateMutability": "nonpayable",
      "type": "function"
    },
    {
      "inputs": [],
      "name": "reveal",
      "outputs": [],
      "stateMutability": "nonpayable",
      "type": "function"
    },
    {
      "inputs": [],
      "name": "revealed",
      "outputs": [
        {
          "internalType": "bool",
          "name": "",
          "type": "bool"
        }
      ],
      "stateMutability": "view",
      "type": "function"
    },
    {
      "inputs": [
        {
          "internalType": "address",
          "name": "from",
          "type": "address"
        },
        {
          "internalType": "address",
          "name": "to",
          "type": "address"
        },
        {
          "internalType": "uint256",
          "name": "tokenId",
          "type": "uint256"
        }
      ],
      "name": "safeTransferFrom",
      "outputs": [],
      "stateMutability": "nonpayable",
      "type": "function"
    },
    {
      "inputs": [
        {
          "internalType": "address",
          "name": "from",
          "type": "address"
        },
        {
          "internalType": "address",
          "name": "to",
          "type": "address"
        },
        {
          "internalType": "uint256",
          "name": "tokenId",
          "type": "uint256"
        },
        {
          "internalType": "bytes",
          "name": "_data",
          "type": "bytes"
        }
      ],
      "name": "safeTransferFrom",
      "outputs": [],
      "stateMutability": "nonpayable",
      "type": "function"
    },
    {
      "inputs": [
        {
          "internalType": "address",
          "name": "operator",
          "type": "address"
        },
        {
          "internalType": "bool",
          "name": "approved",
          "type": "bool"
        }
      ],
      "name": "setApprovalForAll",
      "outputs": [],
      "stateMutability": "nonpayable",
      "type": "function"
    },
    {
      "inputs": [
        {
          "internalType": "string",
          "name": "baseuri_",
          "type": "string"
        }
      ],
      "name": "setBaseUri",
      "outputs": [],
      "stateMutability": "nonpayable",
      "type": "function"
    },
    {
      "inputs": [
        {
          "internalType": "bytes4",
          "name": "interfaceId",
          "type": "bytes4"
        }
      ],
      "name": "supportsInterface",
      "outputs": [
        {
          "internalType": "bool",
          "name": "",
          "type": "bool"
        }
      ],
      "stateMutability": "view",
      "type": "function"
    },
    {
      "inputs": [],
      "name": "symbol",
      "outputs": [
        {
          "internalType": "string",
          "name": "",
          "type": "string"
        }
      ],
      "stateMutability": "view",
      "type": "function"
    },
    {
      "inputs": [],
      "name": "toggleMinting",
      "outputs": [],
      "stateMutability": "nonpayable",
      "type": "function"
    },
    {
      "inputs": [
        {
          "internalType": "uint256",
          "name": "_tokenId",
          "type": "uint256"
        }
      ],
      "name": "tokenURI",
      "outputs": [
        {
          "internalType": "string",
          "name": "",
          "type": "string"
        }
      ],
      "stateMutability": "view",
      "type": "function"
    },
    {
      "inputs": [],
      "name": "totalFreeMinted",
      "outputs": [
        {
          "internalType": "uint256",
          "name": "",
          "type": "uint256"
        }
      ],
      "stateMutability": "view",
      "type": "function"
    },
    {
      "inputs": [],
      "name": "totalSupply",
      "outputs": [
        {
          "internalType": "uint256",
          "name": "",
          "type": "uint256"
        }
      ],
      "stateMutability": "view",
      "type": "function"
    },
    {
      "inputs": [
        {
          "internalType": "address",
          "name": "from",
          "type": "address"
        },
        {
          "internalType": "address",
          "name": "to",
          "type": "address"
        },
        {
          "internalType": "uint256",
          "name": "tokenId",
          "type": "uint256"
        }
      ],
      "name": "transferFrom",
      "outputs": [],
      "stateMutability": "nonpayable",
      "type": "function"
    },
    {
      "inputs": [
        {
          "internalType": "address",
          "name": "newOwner",
          "type": "address"
        }
      ],
      "name": "transferOwnership",
      "outputs": [],
      "stateMutability": "nonpayable",
      "type": "function"
    },
    {
      "inputs": [],
      "name": "withdraw",
      "outputs": [],
      "stateMutability": "nonpayable",
      "type": "function"
    }
  ],
  "bytecode": "0x660ffcb9e57d40006009556001600a5561022b600b55610d05600c556005600d55600e805461ff00191690556000600f5560e060405260356080818152906200230260a03980516200005a9160109160209091019062000148565b503480156200006857600080fd5b5060408051808201825260088152675261696b7972696560c01b60208083019182528351808501909452600384526241434160e81b908401528151919291620000b49160019162000148565b508051620000ca90600290602084019062000148565b505050620000e7620000e1620000f260201b60201c565b620000f6565b60016008556200022b565b3390565b600780546001600160a01b038381166001600160a01b0319831681179093556040519116919082907f8be0079c531659141344cd1fd0a4f28419497f9722a3daafe3b4186f6b6457e090600090a35050565b8280546200015690620001ee565b90600052602060002090601f0160209004810192826200017a5760008555620001c5565b82601f106200019557805160ff1916838001178555620001c5565b82800160010185558215620001c5579182015b82811115620001c5578251825591602001919060010190620001a8565b50620001d3929150620001d7565b5090565b5b80821115620001d35760008155600101620001d8565b600181811c908216806200020357607f821691505b602082108114156200022557634e487b7160e01b600052602260045260246000fd5b50919050565b6120c7806200023b6000396000f3fe6080604052600436106101ee5760003560e01c806398710d1e1161010d578063c87b56dd116100a0578063ed6661c21161006f578063ed6661c214610556578063ed7239831461056c578063f2fde38b14610582578063f4db2acb146105a2578063f968adbe146105cf57600080fd5b8063c87b56dd146104bd578063d1239730146104dd578063dad7b5c9146104f7578063e985e9c51461050d57600080fd5b8063a22cb465116100dc578063a22cb46514610452578063a475b5dd14610472578063b88d4fde14610487578063bf8fbbd2146104a757600080fd5b806398710d1e146103e95780639dc29fac146103ff578063a0712d681461041f578063a0bcfc7f1461043257600080fd5b80635183022711610185578063715018a611610154578063715018a61461038c5780637d55094d146103a15780638da5cb5b146103b657806395d89b41146103d457600080fd5b806351830227146103185780636352211e146103375780636c0360eb1461035757806370a082311461036c57600080fd5b806318160ddd116101c157806318160ddd146102a457806323b872dd146102c35780633ccfd60b146102e357806342842e0e146102f857600080fd5b806301ffc9a7146101f357806306fdde0314610228578063081812fc1461024a578063095ea7b314610282575b600080fd5b3480156101ff57600080fd5b5061021361020e366004611b64565b6105e5565b60405190151581526020015b60405180910390f35b34801561023457600080fd5b5061023d610652565b60405161021f9190611bd9565b34801561025657600080fd5b5061026a610265366004611bec565b6106e4565b6040516001600160a01b03909116815260200161021f565b34801561028e57600080fd5b506102a261029d366004611c21565b610774565b005b3480156102b057600080fd5b506000545b60405190815260200161021f565b3480156102cf57600080fd5b506102a26102de366004611c4b565b61088c565b3480156102ef57600080fd5b506102a2610897565b34801561030457600080fd5b506102a2610313366004611c4b565b6109ac565b34801561032457600080fd5b50600e5461021390610100900460ff1681565b34801561034357600080fd5b5061026a610352366004611bec565b6109c7565b34801561036357600080fd5b5061023d6109d9565b34801561037857600080fd5b506102b5610387366004611c87565b610a67565b34801561039857600080fd5b506102a2610af8565b3480156103ad57600080fd5b506102a2610b2e565b3480156103c257600080fd5b506007546001600160a01b031661026a565b3480156103e057600080fd5b5061023d610b6c565b3480156103f557600080fd5b506102b5600a5481565b34801561040b57600080fd5b506102a261041a366004611c21565b610b7b565b6102a261042d366004611bec565b610bb3565b34801561043e57600080fd5b506102a261044d366004611d2e565b610f52565b34801561045e57600080fd5b506102a261046d366004611d77565b610f8f565b34801561047e57600080fd5b506102a2611054565b34801561049357600080fd5b506102a26104a2366004611db3565b61108f565b3480156104b357600080fd5b506102b560095481565b3480156104c957600080fd5b5061023d6104d8366004611bec565b6110c2565b3480156104e957600080fd5b50600e546102139060ff1681565b34801561050357600080fd5b506102b5600f5481565b34801561051957600080fd5b50610213610528366004611e2f565b6001600160a01b03918216600090815260066020908152604080832093909416825291909152205460ff1690565b34801561056257600080fd5b506102b5600b5481565b34801561057857600080fd5b506102b5600c5481565b34801561058e57600080fd5b506102a261059d366004611c87565b6111b0565b3480156105ae57600080fd5b506102b56105bd366004611c87565b60116020526000908152604090205481565b3480156105db57600080fd5b506102b5600d5481565b60006001600160e01b031982166380ac58cd60e01b148061061657506001600160e01b03198216635b5e139f60e01b145b8061063157506001600160e01b031982166318160ddd60e01b145b8061064c57506301ffc9a760e01b6001600160e01b03198316145b92915050565b60606001805461066190611e62565b80601f016020809104026020016040519081016040528092919081815260200182805461068d90611e62565b80156106da5780601f106106af576101008083540402835291602001916106da565b820191906000526020600020905b8154815290600101906020018083116106bd57829003601f168201915b5050505050905090565b60006106f1826000541190565b6107585760405162461bcd60e51b815260206004820152602d60248201527f455243373231413a20617070726f76656420717565727920666f72206e6f6e6560448201526c3c34b9ba32b73a103a37b5b2b760991b60648201526084015b60405180910390fd5b506000908152600560205260409020546001600160a01b031690565b600061077f826109c7565b9050806001600160a01b0316836001600160a01b031614156107ee5760405162461bcd60e51b815260206004820152602260248201527f455243373231413a20617070726f76616c20746f2063757272656e74206f776e60448201526132b960f11b606482015260840161074f565b336001600160a01b038216148061080a575061080a8133610528565b61087c5760405162461bcd60e51b815260206004820152603960248201527f455243373231413a20617070726f76652063616c6c6572206973206e6f74206f60448201527f776e6572206e6f7220617070726f76656420666f7220616c6c00000000000000606482015260840161074f565b61088783838361124b565b505050565b6108878383836112a7565b6007546001600160a01b031633146108c15760405162461bcd60e51b815260040161074f90611e9d565b600260085414156109145760405162461bcd60e51b815260206004820152601f60248201527f5265656e7472616e637947756172643a207265656e7472616e742063616c6c00604482015260640161074f565b6002600855604051600090339047908381818185875af1925050503d806000811461095b576040519150601f19603f3d011682016040523d82523d6000602084013e610960565b606091505b50509050806109a45760405162461bcd60e51b815260206004820152601060248201526f2a3930b739b332b9103330b4b632b21760811b604482015260640161074f565b506001600855565b6108878383836040518060200160405280600081525061108f565b60006109d28261158c565b5192915050565b601080546109e690611e62565b80601f0160208091040260200160405190810160405280929190818152602001828054610a1290611e62565b8015610a5f5780601f10610a3457610100808354040283529160200191610a5f565b820191906000526020600020905b815481529060010190602001808311610a4257829003601f168201915b505050505081565b60006001600160a01b038216610ad35760405162461bcd60e51b815260206004820152602b60248201527f455243373231413a2062616c616e636520717565727920666f7220746865207a60448201526a65726f206164647265737360a81b606482015260840161074f565b506001600160a01b03166000908152600460205260409020546001600160801b031690565b6007546001600160a01b03163314610b225760405162461bcd60e51b815260040161074f90611e9d565b610b2c6000611663565b565b6007546001600160a01b03163314610b585760405162461bcd60e51b815260040161074f90611e9d565b600e805460ff19811660ff90911615179055565b60606002805461066190611e62565b6007546001600160a01b03163314610ba55760405162461bcd60e51b815260040161074f90611e9d565b610baf82826116b5565b5050565b600954600b546000908190610bc9906001611ee8565b610bd38584611ee8565b108015610bf05750600a5433600090815260116020526040902054105b90508015610e0457600e5460ff16610c415760405162461bcd60e51b8152602060048201526014602482015273135a5b9d081a5cc81b9bdd081b1a5d99481e595d60621b604482015260640161074f565b600c5484610c4e60005490565b610c589190611ee8565b1115610c905760405162461bcd60e51b81526020600482015260076024820152664e6f206d6f726560c81b604482015260640161074f565b600d54841115610cd85760405162461bcd60e51b815260206004820152601360248201527226b0bc103832b9102a2c103932b0b1b432b21760691b604482015260640161074f565b33600090815260116020526040902054600a54610cf59190611f00565b8410610dac5733600090815260116020526040902054600a548491610d1991611f00565b610d239190611f17565b610d2d8486611f17565b610d379190611f00565b341015610d865760405162461bcd60e51b815260206004820181905260248201527f506c656173652073656e64207468652065786163742045544820616d6f756e74604482015260640161074f565b600a54336000908152601160205260409020819055610da59083611ee8565b9150610f3d565b33600090815260116020526040902054600a54610dc99190611f00565b841015610dff573360009081526011602052604081208054869290610def908490611ee8565b90915550610da590508483611ee8565b610f3d565b600e5460ff16610e4d5760405162461bcd60e51b8152602060048201526014602482015273135a5b9d081a5cc81b9bdd081b1a5d99481e595d60621b604482015260640161074f565b610e578385611f17565b341015610ea65760405162461bcd60e51b815260206004820181905260248201527f506c656173652073656e64207468652065786163742045544820616d6f756e74604482015260640161074f565b600c5484610eb360005490565b610ebd9190611ee8565b1115610ef55760405162461bcd60e51b81526020600482015260076024820152664e6f206d6f726560c81b604482015260640161074f565b600d54841115610f3d5760405162461bcd60e51b815260206004820152601360248201527226b0bc103832b9102a2c103932b0b1b432b21760691b604482015260640161074f565b600f829055610f4c33856116b5565b50505050565b6007546001600160a01b03163314610f7c5760405162461bcd60e51b815260040161074f90611e9d565b8051610baf906010906020840190611ab5565b6001600160a01b038216331415610fe85760405162461bcd60e51b815260206004820152601a60248201527f455243373231413a20617070726f766520746f2063616c6c6572000000000000604482015260640161074f565b3360008181526006602090815260408083206001600160a01b03871680855290835292819020805460ff191686151590811790915590519081529192917f17307eab39ab6107e8899845ad3d59bd9653f200f220920489ca2b5937696c31910160405180910390a35050565b6007546001600160a01b0316331461107e5760405162461bcd60e51b815260040161074f90611e9d565b600e805461ff001916610100179055565b61109a8484846112a7565b6110a6848484846116cf565b610f4c5760405162461bcd60e51b815260040161074f90611f36565b60606110cf826000541190565b6111335760405162461bcd60e51b815260206004820152602f60248201527f4552433732314d657461646174613a2055524920717565727920666f72206e6f60448201526e3732bc34b9ba32b73a103a37b5b2b760891b606482015260840161074f565b600e54610100900460ff1661114a5761064c6117dd565b60006111546117dd565b9050600081511161117457604051806020016040528060008152506111a9565b80611188611183856001611ee8565b6117ec565b604051602001611199929190611f89565b6040516020818303038152906040525b9392505050565b6007546001600160a01b031633146111da5760405162461bcd60e51b815260040161074f90611e9d565b6001600160a01b03811661123f5760405162461bcd60e51b815260206004820152602660248201527f4f776e61626c653a206e6577206f776e657220697320746865207a65726f206160448201526564647265737360d01b606482015260840161074f565b61124881611663565b50565b60008281526005602052604080822080546001600160a01b0319166001600160a01b0387811691821790925591518593918516917f8c5be1e5ebec7d5bd14f71427d1e84f3dd0314c0f7b2291e5b200ac8c7c3b92591a4505050565b60006112b28261158c565b80519091506000906001600160a01b0316336001600160a01b031614806112e95750336112de846106e4565b6001600160a01b0316145b806112fb575081516112fb9033610528565b9050806113655760405162461bcd60e51b815260206004820152603260248201527f455243373231413a207472616e736665722063616c6c6572206973206e6f74206044820152711bdddb995c881b9bdc88185c1c1c9bdd995960721b606482015260840161074f565b846001600160a01b031682600001516001600160a01b0316146113d95760405162461bcd60e51b815260206004820152602660248201527f455243373231413a207472616e736665722066726f6d20696e636f72726563746044820152651037bbb732b960d11b606482015260840161074f565b6001600160a01b03841661143d5760405162461bcd60e51b815260206004820152602560248201527f455243373231413a207472616e7366657220746f20746865207a65726f206164604482015264647265737360d81b606482015260840161074f565b61144d600084846000015161124b565b6001600160a01b03858116600090815260046020908152604080832080546001600160801b03198082166001600160801b03928316600019018316179092558986168086528386208054938416938316600190810190931693909317909255888552600390935281842080546001600160e01b031916909117600160a01b4267ffffffffffffffff1602179055908601808352912054909116611542576114f5816000541190565b15611542578251600082815260036020908152604090912080549186015167ffffffffffffffff16600160a01b026001600160e01b03199092166001600160a01b03909316929092171790555b5082846001600160a01b0316866001600160a01b03167fddf252ad1be2c89b69c2b068fc378daa952ba7f163c4a11628f55a4df523b3ef60405160405180910390a45b5050505050565b60408051808201909152600080825260208201526115ab826000541190565b61160a5760405162461bcd60e51b815260206004820152602a60248201527f455243373231413a206f776e657220717565727920666f72206e6f6e657869736044820152693a32b73a103a37b5b2b760b11b606482015260840161074f565b815b6000818152600360209081526040918290208251808401909352546001600160a01b038116808452600160a01b90910467ffffffffffffffff169183019190915215611659579392505050565b506000190161160c565b600780546001600160a01b038381166001600160a01b0319831681179093556040519116919082907f8be0079c531659141344cd1fd0a4f28419497f9722a3daafe3b4186f6b6457e090600090a35050565b610baf8282604051806020016040528060008152506118ea565b60006001600160a01b0384163b156117d157604051630a85bd0160e11b81526001600160a01b0385169063150b7a0290611713903390899088908890600401611fc8565b602060405180830381600087803b15801561172d57600080fd5b505af192505050801561175d575060408051601f3d908101601f1916820190925261175a91810190612005565b60015b6117b7573d80801561178b576040519150601f19603f3d011682016040523d82523d6000602084013e611790565b606091505b5080516117af5760405162461bcd60e51b815260040161074f90611f36565b805181602001fd5b6001600160e01b031916630a85bd0160e11b1490506117d5565b5060015b949350505050565b60606010805461066190611e62565b6060816118105750506040805180820190915260018152600360fc1b602082015290565b8160005b811561183a578061182481612022565b91506118339050600a83612053565b9150611814565b60008167ffffffffffffffff81111561185557611855611ca2565b6040519080825280601f01601f19166020018201604052801561187f576020820181803683370190505b5090505b84156117d557611894600183611f00565b91506118a1600a86612067565b6118ac906030611ee8565b60f81b8183815181106118c1576118c161207b565b60200101906001600160f81b031916908160001a9053506118e3600a86612053565b9450611883565b61088783838360016000546001600160a01b0385166119555760405162461bcd60e51b815260206004820152602160248201527f455243373231413a206d696e7420746f20746865207a65726f206164647265736044820152607360f81b606482015260840161074f565b836119b35760405162461bcd60e51b815260206004820152602860248201527f455243373231413a207175616e74697479206d75737420626520677265617465604482015267072207468616e20360c41b606482015260840161074f565b6001600160a01b03851660008181526004602090815260408083208054600160801b6001600160801b031982166001600160801b039283168c01831690811782900483168c01909216021790558483526003909152812080546001600160e01b031916909217600160a01b4267ffffffffffffffff16021790915581905b85811015611aac5760405182906001600160a01b038916906000907fddf252ad1be2c89b69c2b068fc378daa952ba7f163c4a11628f55a4df523b3ef908290a48315611aa057611a8460008884886116cf565b611aa05760405162461bcd60e51b815260040161074f90611f36565b60019182019101611a31565b50600055611585565b828054611ac190611e62565b90600052602060002090601f016020900481019282611ae35760008555611b29565b82601f10611afc57805160ff1916838001178555611b29565b82800160010185558215611b29579182015b82811115611b29578251825591602001919060010190611b0e565b50611b35929150611b39565b5090565b5b80821115611b355760008155600101611b3a565b6001600160e01b03198116811461124857600080fd5b600060208284031215611b7657600080fd5b81356111a981611b4e565b60005b83811015611b9c578181015183820152602001611b84565b83811115610f4c5750506000910152565b60008151808452611bc5816020860160208601611b81565b601f01601f19169290920160200192915050565b6020815260006111a96020830184611bad565b600060208284031215611bfe57600080fd5b5035919050565b80356001600160a01b0381168114611c1c57600080fd5b919050565b60008060408385031215611c3457600080fd5b611c3d83611c05565b946020939093013593505050565b600080600060608486031215611c6057600080fd5b611c6984611c05565b9250611c7760208501611c05565b9150604084013590509250925092565b600060208284031215611c9957600080fd5b6111a982611c05565b634e487b7160e01b600052604160045260246000fd5b600067ffffffffffffffff80841115611cd357611cd3611ca2565b604051601f8501601f19908116603f01168101908282118183101715611cfb57611cfb611ca2565b81604052809350858152868686011115611d1457600080fd5b858560208301376000602087830101525050509392505050565b600060208284031215611d4057600080fd5b813567ffffffffffffffff811115611d5757600080fd5b8201601f81018413611d6857600080fd5b6117d584823560208401611cb8565b60008060408385031215611d8a57600080fd5b611d9383611c05565b915060208301358015158114611da857600080fd5b809150509250929050565b60008060008060808587031215611dc957600080fd5b611dd285611c05565b9350611de060208601611c05565b925060408501359150606085013567ffffffffffffffff811115611e0357600080fd5b8501601f81018713611e1457600080fd5b611e2387823560208401611cb8565b91505092959194509250565b60008060408385031215611e4257600080fd5b611e4b83611c05565b9150611e5960208401611c05565b90509250929050565b600181811c90821680611e7657607f821691505b60208210811415611e9757634e487b7160e01b600052602260045260246000fd5b50919050565b6020808252818101527f4f776e61626c653a2063616c6c6572206973206e6f7420746865206f776e6572604082015260600190565b634e487b7160e01b600052601160045260246000fd5b60008219821115611efb57611efb611ed2565b500190565b600082821015611f1257611f12611ed2565b500390565b6000816000190483118215151615611f3157611f31611ed2565b500290565b60208082526033908201527f455243373231413a207472616e7366657220746f206e6f6e204552433732315260408201527232b1b2b4bb32b91034b6b83632b6b2b73a32b960691b606082015260800190565b60008351611f9b818460208801611b81565b835190830190611faf818360208801611b81565b64173539b7b760d91b9101908152600501949350505050565b6001600160a01b0385811682528416602082015260408101839052608060608201819052600090611ffb90830184611bad565b9695505050505050565b60006020828403121561201757600080fd5b81516111a981611b4e565b600060001982141561203657612036611ed2565b5060010190565b634e487b7160e01b600052601260045260246000fd5b6000826120625761206261203d565b500490565b6000826120765761207661203d565b500690565b634e487b7160e01b600052603260045260246000fdfea264697066735822122021539272a423d157f03900b0ed5ad5c4f330267cf591801d18eb493491da109f64736f6c63430008090033697066733a2f2f516d5651325262526b7a34363477587a6f36316954375a34516e585168734d42686b5741324347767673325a7861",
  "linkReferences": {},
  "deployedLinkReferences": {}
}