{
    "_format": "hh-sol-artifact-1",
    "contractName": "Raikyrie",
    "sourceName": "contracts/Raikyrie.sol",
    "abi": [
        {
            "inputs": [],
            "stateMutability": "nonpayable",
            "type": "constructor"
        },
        {
            "anonymous": false,
            "inputs": [
                {
                    "indexed": true,
                    "internalType": "address",
                    "name": "owner",
                    "type": "address"
                },
                {
                    "indexed": true,
                    "internalType": "address",
                    "name": "approved",
                    "type": "address"
                },
                {
                    "indexed": true,
                    "internalType": "uint256",
                    "name": "tokenId",
                    "type": "uint256"
                }
            ],
            "name": "Approval",
            "type": "event"
        },
        {
            "anonymous": false,
            "inputs": [
                {
                    "indexed": true,
                    "internalType": "address",
                    "name": "owner",
                    "type": "address"
                },
                {
                    "indexed": true,
                    "internalType": "address",
                    "name": "operator",
                    "type": "address"
                },
                {
                    "indexed": false,
                    "internalType": "bool",
                    "name": "approved",
                    "type": "bool"
                }
            ],
            "name": "ApprovalForAll",
            "type": "event"
        },
        {
            "anonymous": false,
            "inputs": [
                {
                    "indexed": true,
                    "internalType": "address",
                    "name": "previousOwner",
                    "type": "address"
                },
                {
                    "indexed": true,
                    "internalType": "address",
                    "name": "newOwner",
                    "type": "address"
                }
            ],
            "name": "OwnershipTransferred",
            "type": "event"
        },
        {
            "anonymous": false,
            "inputs": [
                {
                    "indexed": true,
                    "internalType": "address",
                    "name": "from",
                    "type": "address"
                },
                {
                    "indexed": true,
                    "internalType": "address",
                    "name": "to",
                    "type": "address"
                },
                {
                    "indexed": true,
                    "internalType": "uint256",
                    "name": "tokenId",
                    "type": "uint256"
                }
            ],
            "name": "Transfer",
            "type": "event"
        },
        {
            "inputs": [
                {
                    "internalType": "address",
                    "name": "",
                    "type": "address"
                }
            ],
            "name": "_mintedFreeAmount",
            "outputs": [
                {
                    "internalType": "uint256",
                    "name": "",
                    "type": "uint256"
                }
            ],
            "stateMutability": "view",
            "type": "function"
        },
        {
            "inputs": [
                {
                    "internalType": "address",
                    "name": "to",
                    "type": "address"
                },
                {
                    "internalType": "uint256",
                    "name": "tokenId",
                    "type": "uint256"
                }
            ],
            "name": "approve",
            "outputs": [],
            "stateMutability": "nonpayable",
            "type": "function"
        },
        {
            "inputs": [
                {
                    "internalType": "address",
                    "name": "owner",
                    "type": "address"
                }
            ],
            "name": "balanceOf",
            "outputs": [
                {
                    "internalType": "uint256",
                    "name": "",
                    "type": "uint256"
                }
            ],
            "stateMutability": "view",
            "type": "function"
        },
        {
            "inputs": [],
            "name": "baseURI",
            "outputs": [
                {
                    "internalType": "string",
                    "name": "",
                    "type": "string"
                }
            ],
            "stateMutability": "view",
            "type": "function"
        },
        {
            "inputs": [
                {
                    "internalType": "address",
                    "name": "mintAddress",
                    "type": "address"
                },
                {
                    "internalType": "uint256",
                    "name": "count",
                    "type": "uint256"
                }
            ],
            "name": "burn",
            "outputs": [],
            "stateMutability": "nonpayable",
            "type": "function"
        },
        {
            "inputs": [],
            "name": "costCheck",
            "outputs": [
                {
                    "internalType": "uint256",
                    "name": "",
                    "type": "uint256"
                }
            ],
            "stateMutability": "view",
            "type": "function"
        },
        {
            "inputs": [
                {
                    "internalType": "uint256",
                    "name": "tokenId",
                    "type": "uint256"
                }
            ],
            "name": "getApproved",
            "outputs": [
                {
                    "internalType": "address",
                    "name": "",
                    "type": "address"
                }
            ],
            "stateMutability": "view",
            "type": "function"
        },
        {
            "inputs": [
                {
                    "internalType": "address",
                    "name": "owner",
                    "type": "address"
                },
                {
                    "internalType": "address",
                    "name": "operator",
                    "type": "address"
                }
            ],
            "name": "isApprovedForAll",
            "outputs": [
                {
                    "internalType": "bool",
                    "name": "",
                    "type": "bool"
                }
            ],
            "stateMutability": "view",
            "type": "function"
        },
        {
            "inputs": [],
            "name": "maxFreePerWallet",
            "outputs": [
                {
                    "internalType": "uint256",
                    "name": "",
                    "type": "uint256"
                }
            ],
            "stateMutability": "view",
            "type": "function"
        },
        {
            "inputs": [],
            "name": "maxPerFree",
            "outputs": [
                {
                    "internalType": "uint256",
                    "name": "",
                    "type": "uint256"
                }
            ],
            "stateMutability": "view",
            "type": "function"
        },
        {
            "inputs": [],
            "name": "maxPerTx",
            "outputs": [
                {
                    "internalType": "uint256",
                    "name": "",
                    "type": "uint256"
                }
            ],
            "stateMutability": "view",
            "type": "function"
        },
        {
            "inputs": [],
            "name": "maxSupply",
            "outputs": [
                {
                    "internalType": "uint256",
                    "name": "",
                    "type": "uint256"
                }
            ],
            "stateMutability": "view",
            "type": "function"
        },
        {
            "inputs": [
                {
                    "internalType": "uint256",
                    "name": "count",
                    "type": "uint256"
                }
            ],
            "name": "mint",
            "outputs": [],
            "stateMutability": "payable",
            "type": "function"
        },
        {
            "inputs": [],
            "name": "mintEnabled",
            "outputs": [
                {
                    "internalType": "bool",
                    "name": "",
                    "type": "bool"
                }
            ],
            "stateMutability": "view",
            "type": "function"
        },
        {
            "inputs": [],
            "name": "name",
            "outputs": [
                {
                    "internalType": "string",
                    "name": "",
                    "type": "string"
                }
            ],
            "stateMutability": "view",
            "type": "function"
        },
        {
            "inputs": [],
            "name": "owner",
            "outputs": [
                {
                    "internalType": "address",
                    "name": "",
                    "type": "address"
                }
            ],
            "stateMutability": "view",
            "type": "function"
        },
        {
            "inputs": [
                {
                    "internalType": "uint256",
                    "name": "tokenId",
                    "type": "uint256"
                }
            ],
            "name": "ownerOf",
            "outputs": [
                {
                    "internalType": "address",
                    "name": "",
                    "type": "address"
                }
            ],
            "stateMutability": "view",
            "type": "function"
        },
        {
            "inputs": [],
            "name": "price",
            "outputs": [
                {
                    "internalType": "uint256",
                    "name": "",
                    "type": "uint256"
                }
            ],
            "stateMutability": "view",
            "type": "function"
        },
        {
            "inputs": [],
            "name": "renounceOwnership",
            "outputs": [],
            "stateMutability": "nonpayable",
            "type": "function"
        },
        {
            "inputs": [
                {
                    "internalType": "address",
                    "name": "from",
                    "type": "address"
                },
                {
                    "internalType": "address",
                    "name": "to",
                    "type": "address"
                },
                {
                    "internalType": "uint256",
                    "name": "tokenId",
                    "type": "uint256"
                }
            ],
            "name": "safeTransferFrom",
            "outputs": [],
            "stateMutability": "nonpayable",
            "type": "function"
        },
        {
            "inputs": [
                {
                    "internalType": "address",
                    "name": "from",
                    "type": "address"
                },
                {
                    "internalType": "address",
                    "name": "to",
                    "type": "address"
                },
                {
                    "internalType": "uint256",
                    "name": "tokenId",
                    "type": "uint256"
                },
                {
                    "internalType": "bytes",
                    "name": "_data",
                    "type": "bytes"
                }
            ],
            "name": "safeTransferFrom",
            "outputs": [],
            "stateMutability": "nonpayable",
            "type": "function"
        },
        {
            "inputs": [
                {
                    "internalType": "address",
                    "name": "operator",
                    "type": "address"
                },
                {
                    "internalType": "bool",
                    "name": "approved",
                    "type": "bool"
                }
            ],
            "name": "setApprovalForAll",
            "outputs": [],
            "stateMutability": "nonpayable",
            "type": "function"
        },
        {
            "inputs": [
                {
                    "internalType": "string",
                    "name": "baseuri_",
                    "type": "string"
                }
            ],
            "name": "setBaseUri",
            "outputs": [],
            "stateMutability": "nonpayable",
            "type": "function"
        },
        {
            "inputs": [
                {
                    "internalType": "uint256",
                    "name": "MaxPerFree_",
                    "type": "uint256"
                }
            ],
            "name": "setMaxPerFree",
            "outputs": [],
            "stateMutability": "nonpayable",
            "type": "function"
        },
        {
            "inputs": [
                {
                    "internalType": "uint256",
                    "name": "MaxTotalFree_",
                    "type": "uint256"
                }
            ],
            "name": "setMaxTotalFree",
            "outputs": [],
            "stateMutability": "nonpayable",
            "type": "function"
        },
        {
            "inputs": [
                {
                    "internalType": "uint256",
                    "name": "price_",
                    "type": "uint256"
                }
            ],
            "name": "setPrice",
            "outputs": [],
            "stateMutability": "nonpayable",
            "type": "function"
        },
        {
            "inputs": [
                {
                    "internalType": "bytes4",
                    "name": "interfaceId",
                    "type": "bytes4"
                }
            ],
            "name": "supportsInterface",
            "outputs": [
                {
                    "internalType": "bool",
                    "name": "",
                    "type": "bool"
                }
            ],
            "stateMutability": "view",
            "type": "function"
        },
        {
            "inputs": [],
            "name": "symbol",
            "outputs": [
                {
                    "internalType": "string",
                    "name": "",
                    "type": "string"
                }
            ],
            "stateMutability": "view",
            "type": "function"
        },
        {
            "inputs": [],
            "name": "toggleMinting",
            "outputs": [],
            "stateMutability": "nonpayable",
            "type": "function"
        },
        {
            "inputs": [
                {
                    "internalType": "uint256",
                    "name": "index",
                    "type": "uint256"
                }
            ],
            "name": "tokenByIndex",
            "outputs": [
                {
                    "internalType": "uint256",
                    "name": "",
                    "type": "uint256"
                }
            ],
            "stateMutability": "view",
            "type": "function"
        },
        {
            "inputs": [
                {
                    "internalType": "address",
                    "name": "owner",
                    "type": "address"
                },
                {
                    "internalType": "uint256",
                    "name": "index",
                    "type": "uint256"
                }
            ],
            "name": "tokenOfOwnerByIndex",
            "outputs": [
                {
                    "internalType": "uint256",
                    "name": "",
                    "type": "uint256"
                }
            ],
            "stateMutability": "view",
            "type": "function"
        },
        {
            "inputs": [
                {
                    "internalType": "uint256",
                    "name": "_tokenId",
                    "type": "uint256"
                }
            ],
            "name": "tokenURI",
            "outputs": [
                {
                    "internalType": "string",
                    "name": "",
                    "type": "string"
                }
            ],
            "stateMutability": "view",
            "type": "function"
        },
        {
            "inputs": [],
            "name": "totalFree",
            "outputs": [
                {
                    "internalType": "uint256",
                    "name": "",
                    "type": "uint256"
                }
            ],
            "stateMutability": "view",
            "type": "function"
        },
        {
            "inputs": [],
            "name": "totalFreeMinted",
            "outputs": [
                {
                    "internalType": "uint256",
                    "name": "",
                    "type": "uint256"
                }
            ],
            "stateMutability": "view",
            "type": "function"
        },
        {
            "inputs": [],
            "name": "totalSupply",
            "outputs": [
                {
                    "internalType": "uint256",
                    "name": "",
                    "type": "uint256"
                }
            ],
            "stateMutability": "view",
            "type": "function"
        },
        {
            "inputs": [
                {
                    "internalType": "address",
                    "name": "from",
                    "type": "address"
                },
                {
                    "internalType": "address",
                    "name": "to",
                    "type": "address"
                },
                {
                    "internalType": "uint256",
                    "name": "tokenId",
                    "type": "uint256"
                }
            ],
            "name": "transferFrom",
            "outputs": [],
            "stateMutability": "nonpayable",
            "type": "function"
        },
        {
            "inputs": [
                {
                    "internalType": "address",
                    "name": "newOwner",
                    "type": "address"
                }
            ],
            "name": "transferOwnership",
            "outputs": [],
            "stateMutability": "nonpayable",
            "type": "function"
        },
        {
            "inputs": [],
            "name": "withdraw",
            "outputs": [],
            "stateMutability": "nonpayable",
            "type": "function"
        }
    ],
    "bytecode": "0x600880546001600160a01b03191673acfcba7bab6403ebcceee22810c4dd3c9bbe97631790556101006040526043608081815290620026ab60a03980516200005091600a9160209091019062000164565b50660bb9551fc24000600b556005600c556001600d5561022b600e55610d05600f5560006011553480156200008457600080fd5b5060408051808201825260088152675261696b7972696560c01b60208083019182528351808501909452600384526241434160e81b908401528151919291620000d09160019162000164565b508051620000e690600290602084019062000164565b50505062000103620000fd6200010e60201b60201c565b62000112565b600160095562000247565b3390565b600780546001600160a01b038381166001600160a01b0319831681179093556040519116919082907f8be0079c531659141344cd1fd0a4f28419497f9722a3daafe3b4186f6b6457e090600090a35050565b82805462000172906200020a565b90600052602060002090601f016020900481019282620001965760008555620001e1565b82601f10620001b157805160ff1916838001178555620001e1565b82800160010185558215620001e1579182015b82811115620001e1578251825591602001919060010190620001c4565b50620001ef929150620001f3565b5090565b5b80821115620001ef5760008155600101620001f4565b600181811c908216806200021f57607f821691505b602082108114156200024157634e487b7160e01b600052602260045260246000fd5b50919050565b61245480620002576000396000f3fe6080604052600436106102255760003560e01c806391b7f5ed11610123578063c7c39ffc116100ab578063e945971c1161006f578063e945971c146105e6578063e985e9c514610606578063f2fde38b1461064f578063f4db2acb1461066f578063f968adbe1461069c57600080fd5b8063c7c39ffc1461056a578063c87b56dd14610580578063d1239730146105a0578063d5abeb01146105ba578063dad7b5c9146105d057600080fd5b8063a0712d68116100f2578063a0712d68146104e2578063a0bcfc7f146104f5578063a22cb46514610515578063a702735714610535578063b88d4fde1461054a57600080fd5b806391b7f5ed1461047757806395d89b41146104975780639dc29fac146104ac578063a035b1fe146104cc57600080fd5b806342842e0e116101b15780636c0360eb116101755780636c0360eb146103fa57806370a082311461040f578063715018a61461042f5780637d55094d146104445780638da5cb5b1461045957600080fd5b806342842e0e146103655780634f6ccce7146103855780635a963f1b146103a55780636352211e146103c557806364b72188146103e557600080fd5b806318160ddd116101f857806318160ddd146102db57806323b872dd146102fa5780632f745c591461031a578063333e44e61461033a5780633ccfd60b1461035057600080fd5b806301ffc9a71461022a57806306fdde031461025f578063081812fc14610281578063095ea7b3146102b9575b600080fd5b34801561023657600080fd5b5061024a610245366004611ef1565b6106b2565b60405190151581526020015b60405180910390f35b34801561026b57600080fd5b5061027461071f565b6040516102569190611f66565b34801561028d57600080fd5b506102a161029c366004611f79565b6107b1565b6040516001600160a01b039091168152602001610256565b3480156102c557600080fd5b506102d96102d4366004611fae565b610841565b005b3480156102e757600080fd5b506000545b604051908152602001610256565b34801561030657600080fd5b506102d9610315366004611fd8565b610959565b34801561032657600080fd5b506102ec610335366004611fae565b610964565b34801561034657600080fd5b506102ec600e5481565b34801561035c57600080fd5b506102d9610ac1565b34801561037157600080fd5b506102d9610380366004611fd8565b610beb565b34801561039157600080fd5b506102ec6103a0366004611f79565b610c06565b3480156103b157600080fd5b506102d96103c0366004611f79565b610c68565b3480156103d157600080fd5b506102a16103e0366004611f79565b610cac565b3480156103f157600080fd5b50600b546102ec565b34801561040657600080fd5b50610274610cbe565b34801561041b57600080fd5b506102ec61042a366004612014565b610d4c565b34801561043b57600080fd5b506102d9610ddd565b34801561045057600080fd5b506102d9610e28565b34801561046557600080fd5b506007546001600160a01b03166102a1565b34801561048357600080fd5b506102d9610492366004611f79565b610e7b565b3480156104a357600080fd5b50610274610ebf565b3480156104b857600080fd5b506102d96104c7366004611fae565b610ece565b3480156104d857600080fd5b506102ec600b5481565b6102d96104f0366004611f79565b610f1b565b34801561050157600080fd5b506102d96105103660046120bb565b6112c6565b34801561052157600080fd5b506102d9610530366004612104565b611318565b34801561054157600080fd5b50600d546102ec565b34801561055657600080fd5b506102d9610565366004612140565b6113dd565b34801561057657600080fd5b506102ec600d5481565b34801561058c57600080fd5b5061027461059b366004611f79565b611416565b3480156105ac57600080fd5b5060105461024a9060ff1681565b3480156105c657600080fd5b506102ec600f5481565b3480156105dc57600080fd5b506102ec60115481565b3480156105f257600080fd5b506102d9610601366004611f79565b6114ed565b34801561061257600080fd5b5061024a6106213660046121bc565b6001600160a01b03918216600090815260066020908152604080832093909416825291909152205460ff1690565b34801561065b57600080fd5b506102d961066a366004612014565b611531565b34801561067b57600080fd5b506102ec61068a366004612014565b60126020526000908152604090205481565b3480156106a857600080fd5b506102ec600c5481565b60006001600160e01b031982166380ac58cd60e01b14806106e357506001600160e01b03198216635b5e139f60e01b145b806106fe57506001600160e01b0319821663780e9d6360e01b145b8061071957506301ffc9a760e01b6001600160e01b03198316145b92915050565b60606001805461072e906121ef565b80601f016020809104026020016040519081016040528092919081815260200182805461075a906121ef565b80156107a75780601f1061077c576101008083540402835291602001916107a7565b820191906000526020600020905b81548152906001019060200180831161078a57829003601f168201915b5050505050905090565b60006107be826000541190565b6108255760405162461bcd60e51b815260206004820152602d60248201527f455243373231413a20617070726f76656420717565727920666f72206e6f6e6560448201526c3c34b9ba32b73a103a37b5b2b760991b60648201526084015b60405180910390fd5b506000908152600560205260409020546001600160a01b031690565b600061084c82610cac565b9050806001600160a01b0316836001600160a01b031614156108bb5760405162461bcd60e51b815260206004820152602260248201527f455243373231413a20617070726f76616c20746f2063757272656e74206f776e60448201526132b960f11b606482015260840161081c565b336001600160a01b03821614806108d757506108d78133610621565b6109495760405162461bcd60e51b815260206004820152603960248201527f455243373231413a20617070726f76652063616c6c6572206973206e6f74206f60448201527f776e6572206e6f7220617070726f76656420666f7220616c6c00000000000000606482015260840161081c565b6109548383836115e1565b505050565b61095483838361163d565b600061096f83610d4c565b82106109c85760405162461bcd60e51b815260206004820152602260248201527f455243373231413a206f776e657220696e646578206f7574206f6620626f756e604482015261647360f01b606482015260840161081c565b600080549080805b83811015610a61576000818152600360209081526040918290208251808401909352546001600160a01b038116808452600160a01b90910467ffffffffffffffff169183019190915215610a2357805192505b876001600160a01b0316836001600160a01b03161415610a585786841415610a515750935061071992505050565b6001909301925b506001016109d0565b5060405162461bcd60e51b815260206004820152602e60248201527f455243373231413a20756e61626c6520746f2067657420746f6b656e206f662060448201526d0deeedccae440c4f240d2dcc8caf60931b606482015260840161081c565b6007546001600160a01b0316331480610ae457506008546001600160a01b031633145b610b005760405162461bcd60e51b815260040161081c9061222a565b60026009541415610b535760405162461bcd60e51b815260206004820152601f60248201527f5265656e7472616e637947756172643a207265656e7472616e742063616c6c00604482015260640161081c565b6002600955604051600090339047908381818185875af1925050503d8060008114610b9a576040519150601f19603f3d011682016040523d82523d6000602084013e610b9f565b606091505b5050905080610be35760405162461bcd60e51b815260206004820152601060248201526f2a3930b739b332b9103330b4b632b21760811b604482015260640161081c565b506001600955565b610954838383604051806020016040528060008152506113dd565b600080548210610c645760405162461bcd60e51b815260206004820152602360248201527f455243373231413a20676c6f62616c20696e646578206f7574206f6620626f756044820152626e647360e81b606482015260840161081c565b5090565b6007546001600160a01b0316331480610c8b57506008546001600160a01b031633145b610ca75760405162461bcd60e51b815260040161081c9061222a565b600e55565b6000610cb782611922565b5192915050565b600a8054610ccb906121ef565b80601f0160208091040260200160405190810160405280929190818152602001828054610cf7906121ef565b8015610d445780601f10610d1957610100808354040283529160200191610d44565b820191906000526020600020905b815481529060010190602001808311610d2757829003601f168201915b505050505081565b60006001600160a01b038216610db85760405162461bcd60e51b815260206004820152602b60248201527f455243373231413a2062616c616e636520717565727920666f7220746865207a60448201526a65726f206164647265737360a81b606482015260840161081c565b506001600160a01b03166000908152600460205260409020546001600160801b031690565b6007546001600160a01b0316331480610e0057506008546001600160a01b031633145b610e1c5760405162461bcd60e51b815260040161081c9061222a565b610e2660006119f9565b565b6007546001600160a01b0316331480610e4b57506008546001600160a01b031633145b610e675760405162461bcd60e51b815260040161081c9061222a565b6010805460ff19811660ff90911615179055565b6007546001600160a01b0316331480610e9e57506008546001600160a01b031633145b610eba5760405162461bcd60e51b815260040161081c9061222a565b600b55565b60606002805461072e906121ef565b6007546001600160a01b0316331480610ef157506008546001600160a01b031633145b610f0d5760405162461bcd60e51b815260040161081c9061222a565b610f178282611a4b565b5050565b600b54600e54600090610f2f906001612275565b83601154610f3d9190612275565b108015610f5a5750600d5433600090815260126020526040902054105b905080156111835760105460ff16610fab5760405162461bcd60e51b8152602060048201526014602482015273135a5b9d081a5cc81b9bdd081b1a5d99481e595d60621b604482015260640161081c565b600f5483610fb860005490565b610fc29190612275565b1115610ffa5760405162461bcd60e51b81526020600482015260076024820152664e6f206d6f726560c81b604482015260640161081c565b600c548311156110425760405162461bcd60e51b815260206004820152601360248201527226b0bc103832b9102a2c103932b0b1b432b21760691b604482015260640161081c565b33600090815260126020526040902054600d5461105f919061228d565b83106111225733600090815260126020526040902054600d5483916110839161228d565b61108d91906122a4565b61109783856122a4565b6110a1919061228d565b3410156110f05760405162461bcd60e51b815260206004820181905260248201527f506c656173652073656e64207468652065786163742045544820616d6f756e74604482015260640161081c565b600d5433600090815260126020526040812082905560118054909190611117908490612275565b909155506112bc9050565b33600090815260126020526040902054600d5461113f919061228d565b83101561117e573360009081526012602052604081208054859290611165908490612275565b9250508190555082601160008282546111179190612275565b6112bc565b60105460ff166111cc5760405162461bcd60e51b8152602060048201526014602482015273135a5b9d081a5cc81b9bdd081b1a5d99481e595d60621b604482015260640161081c565b6111d682846122a4565b3410156112255760405162461bcd60e51b815260206004820181905260248201527f506c656173652073656e64207468652065786163742045544820616d6f756e74604482015260640161081c565b600f548361123260005490565b61123c9190612275565b11156112745760405162461bcd60e51b81526020600482015260076024820152664e6f206d6f726560c81b604482015260640161081c565b600c548311156112bc5760405162461bcd60e51b815260206004820152601360248201527226b0bc103832b9102a2c103932b0b1b432b21760691b604482015260640161081c565b6109543384611a4b565b6007546001600160a01b03163314806112e957506008546001600160a01b031633145b6113055760405162461bcd60e51b815260040161081c9061222a565b8051610f1790600a906020840190611e4b565b6001600160a01b0382163314156113715760405162461bcd60e51b815260206004820152601a60248201527f455243373231413a20617070726f766520746f2063616c6c6572000000000000604482015260640161081c565b3360008181526006602090815260408083206001600160a01b03871680855290835292819020805460ff191686151590811790915590519081529192917f17307eab39ab6107e8899845ad3d59bd9653f200f220920489ca2b5937696c31910160405180910390a35050565b6113e884848461163d565b6113f484848484611a65565b6114105760405162461bcd60e51b815260040161081c906122c3565b50505050565b6060611423826000541190565b6114875760405162461bcd60e51b815260206004820152602f60248201527f4552433732314d657461646174613a2055524920717565727920666f72206e6f60448201526e3732bc34b9ba32b73a103a37b5b2b760891b606482015260840161081c565b6000611491611b73565b905060008151116114b157604051806020016040528060008152506114e6565b806114c56114c0856001612275565b611b82565b6040516020016114d6929190612316565b6040516020818303038152906040525b9392505050565b6007546001600160a01b031633148061151057506008546001600160a01b031633145b61152c5760405162461bcd60e51b815260040161081c9061222a565b600d55565b6007546001600160a01b031633148061155457506008546001600160a01b031633145b6115705760405162461bcd60e51b815260040161081c9061222a565b6001600160a01b0381166115d55760405162461bcd60e51b815260206004820152602660248201527f4f776e61626c653a206e6577206f776e657220697320746865207a65726f206160448201526564647265737360d01b606482015260840161081c565b6115de816119f9565b50565b60008281526005602052604080822080546001600160a01b0319166001600160a01b0387811691821790925591518593918516917f8c5be1e5ebec7d5bd14f71427d1e84f3dd0314c0f7b2291e5b200ac8c7c3b92591a4505050565b600061164882611922565b80519091506000906001600160a01b0316336001600160a01b0316148061167f575033611674846107b1565b6001600160a01b0316145b80611691575081516116919033610621565b9050806116fb5760405162461bcd60e51b815260206004820152603260248201527f455243373231413a207472616e736665722063616c6c6572206973206e6f74206044820152711bdddb995c881b9bdc88185c1c1c9bdd995960721b606482015260840161081c565b846001600160a01b031682600001516001600160a01b03161461176f5760405162461bcd60e51b815260206004820152602660248201527f455243373231413a207472616e736665722066726f6d20696e636f72726563746044820152651037bbb732b960d11b606482015260840161081c565b6001600160a01b0384166117d35760405162461bcd60e51b815260206004820152602560248201527f455243373231413a207472616e7366657220746f20746865207a65726f206164604482015264647265737360d81b606482015260840161081c565b6117e360008484600001516115e1565b6001600160a01b03858116600090815260046020908152604080832080546001600160801b03198082166001600160801b03928316600019018316179092558986168086528386208054938416938316600190810190931693909317909255888552600390935281842080546001600160e01b031916909117600160a01b4267ffffffffffffffff16021790559086018083529120549091166118d85761188b816000541190565b156118d8578251600082815260036020908152604090912080549186015167ffffffffffffffff16600160a01b026001600160e01b03199092166001600160a01b03909316929092171790555b5082846001600160a01b0316866001600160a01b03167fddf252ad1be2c89b69c2b068fc378daa952ba7f163c4a11628f55a4df523b3ef60405160405180910390a45b5050505050565b6040805180820190915260008082526020820152611941826000541190565b6119a05760405162461bcd60e51b815260206004820152602a60248201527f455243373231413a206f776e657220717565727920666f72206e6f6e657869736044820152693a32b73a103a37b5b2b760b11b606482015260840161081c565b815b6000818152600360209081526040918290208251808401909352546001600160a01b038116808452600160a01b90910467ffffffffffffffff1691830191909152156119ef579392505050565b50600019016119a2565b600780546001600160a01b038381166001600160a01b0319831681179093556040519116919082907f8be0079c531659141344cd1fd0a4f28419497f9722a3daafe3b4186f6b6457e090600090a35050565b610f17828260405180602001604052806000815250611c80565b60006001600160a01b0384163b15611b6757604051630a85bd0160e11b81526001600160a01b0385169063150b7a0290611aa9903390899088908890600401612355565b602060405180830381600087803b158015611ac357600080fd5b505af1925050508015611af3575060408051601f3d908101601f19168201909252611af091810190612392565b60015b611b4d573d808015611b21576040519150601f19603f3d011682016040523d82523d6000602084013e611b26565b606091505b508051611b455760405162461bcd60e51b815260040161081c906122c3565b805181602001fd5b6001600160e01b031916630a85bd0160e11b149050611b6b565b5060015b949350505050565b6060600a805461072e906121ef565b606081611ba65750506040805180820190915260018152600360fc1b602082015290565b8160005b8115611bd05780611bba816123af565b9150611bc99050600a836123e0565b9150611baa565b60008167ffffffffffffffff811115611beb57611beb61202f565b6040519080825280601f01601f191660200182016040528015611c15576020820181803683370190505b5090505b8415611b6b57611c2a60018361228d565b9150611c37600a866123f4565b611c42906030612275565b60f81b818381518110611c5757611c57612408565b60200101906001600160f81b031916908160001a905350611c79600a866123e0565b9450611c19565b61095483838360016000546001600160a01b038516611ceb5760405162461bcd60e51b815260206004820152602160248201527f455243373231413a206d696e7420746f20746865207a65726f206164647265736044820152607360f81b606482015260840161081c565b83611d495760405162461bcd60e51b815260206004820152602860248201527f455243373231413a207175616e74697479206d75737420626520677265617465604482015267072207468616e20360c41b606482015260840161081c565b6001600160a01b03851660008181526004602090815260408083208054600160801b6001600160801b031982166001600160801b039283168c01831690811782900483168c01909216021790558483526003909152812080546001600160e01b031916909217600160a01b4267ffffffffffffffff16021790915581905b85811015611e425760405182906001600160a01b038916906000907fddf252ad1be2c89b69c2b068fc378daa952ba7f163c4a11628f55a4df523b3ef908290a48315611e3657611e1a6000888488611a65565b611e365760405162461bcd60e51b815260040161081c906122c3565b60019182019101611dc7565b5060005561191b565b828054611e57906121ef565b90600052602060002090601f016020900481019282611e795760008555611ebf565b82601f10611e9257805160ff1916838001178555611ebf565b82800160010185558215611ebf579182015b82811115611ebf578251825591602001919060010190611ea4565b50610c649291505b80821115610c645760008155600101611ec7565b6001600160e01b0319811681146115de57600080fd5b600060208284031215611f0357600080fd5b81356114e681611edb565b60005b83811015611f29578181015183820152602001611f11565b838111156114105750506000910152565b60008151808452611f52816020860160208601611f0e565b601f01601f19169290920160200192915050565b6020815260006114e66020830184611f3a565b600060208284031215611f8b57600080fd5b5035919050565b80356001600160a01b0381168114611fa957600080fd5b919050565b60008060408385031215611fc157600080fd5b611fca83611f92565b946020939093013593505050565b600080600060608486031215611fed57600080fd5b611ff684611f92565b925061200460208501611f92565b9150604084013590509250925092565b60006020828403121561202657600080fd5b6114e682611f92565b634e487b7160e01b600052604160045260246000fd5b600067ffffffffffffffff808411156120605761206061202f565b604051601f8501601f19908116603f011681019082821181831017156120885761208861202f565b816040528093508581528686860111156120a157600080fd5b858560208301376000602087830101525050509392505050565b6000602082840312156120cd57600080fd5b813567ffffffffffffffff8111156120e457600080fd5b8201601f810184136120f557600080fd5b611b6b84823560208401612045565b6000806040838503121561211757600080fd5b61212083611f92565b91506020830135801515811461213557600080fd5b809150509250929050565b6000806000806080858703121561215657600080fd5b61215f85611f92565b935061216d60208601611f92565b925060408501359150606085013567ffffffffffffffff81111561219057600080fd5b8501601f810187136121a157600080fd5b6121b087823560208401612045565b91505092959194509250565b600080604083850312156121cf57600080fd5b6121d883611f92565b91506121e660208401611f92565b90509250929050565b600181811c9082168061220357607f821691505b6020821081141561222457634e487b7160e01b600052602260045260246000fd5b50919050565b6020808252818101527f4f776e61626c653a2063616c6c6572206973206e6f7420746865206f776e6572604082015260600190565b634e487b7160e01b600052601160045260246000fd5b600082198211156122885761228861225f565b500190565b60008282101561229f5761229f61225f565b500390565b60008160001904831182151516156122be576122be61225f565b500290565b60208082526033908201527f455243373231413a207472616e7366657220746f206e6f6e204552433732315260408201527232b1b2b4bb32b91034b6b83632b6b2b73a32b960691b606082015260800190565b60008351612328818460208801611f0e565b83519083019061233c818360208801611f0e565b64173539b7b760d91b9101908152600501949350505050565b6001600160a01b038581168252841660208201526040810183905260806060820181905260009061238890830184611f3a565b9695505050505050565b6000602082840312156123a457600080fd5b81516114e681611edb565b60006000198214156123c3576123c361225f565b5060010190565b634e487b7160e01b600052601260045260246000fd5b6000826123ef576123ef6123ca565b500490565b600082612403576124036123ca565b500690565b634e487b7160e01b600052603260045260246000fdfea26469706673582212200e3a7f48c0f61a77a61825d0efb2dcf8610ea14a0991eedec88016561c4459f464736f6c63430008090033697066733a2f2f62616679626569643370366734763468337264636a637165633632366f716c326277796d6e636c65626468676b7079753468326d6d7177766262792f",
    "linkReferences": {},
    "deployedLinkReferences": {}
}